{
    "contractName": "RepaymentDeed",
    "abi": [
        {
            "inputs": [
                {
                    "internalType": "address",
                    "name": "_lender",
                    "type": "address"
                },
                {
                    "internalType": "uint32",
                    "name": "_totalLoan",
                    "type": "uint32"
                },
                {
                    "internalType": "uint32",
                    "name": "_interestRate",
                    "type": "uint32"
                },
                {
                    "internalType": "uint32",
                    "name": "_startDate",
                    "type": "uint32"
                },
                {
                    "internalType": "uint32",
                    "name": "_duration",
                    "type": "uint32"
                },
                {
                    "internalType": "uint32",
                    "name": "_interval",
                    "type": "uint32"
                }
            ],
            "stateMutability": "nonpayable",
            "type": "constructor"
        },
        {
            "inputs": [
                {
                    "internalType": "uint32",
                    "name": "attempted",
                    "type": "uint32"
                },
                {
                    "internalType": "uint32",
                    "name": "available",
                    "type": "uint32"
                }
            ],
            "name": "InvalidPayment",
            "type": "error"
        },
        {
            "anonymous": false,
            "inputs": [
                {
                    "indexed": true,
                    "internalType": "address",
                    "name": "borrower",
                    "type": "address"
                },
                {
                    "indexed": false,
                    "internalType": "uint32",
                    "name": "totalLoan",
                    "type": "uint32"
                },
                {
                    "indexed": false,
                    "internalType": "uint32",
                    "name": "interestRate",
                    "type": "uint32"
                },
                {
                    "indexed": false,
                    "internalType": "uint32",
                    "name": "remainingBalance",
                    "type": "uint32"
                }
            ],
            "name": "LoanRepaid",
            "type": "event"
        },
        {
            "anonymous": false,
            "inputs": [
                {
                    "indexed": true,
                    "internalType": "address",
                    "name": "borrower",
                    "type": "address"
                },
                {
                    "indexed": false,
                    "internalType": "uint32",
                    "name": "amount",
                    "type": "uint32"
                },
                {
                    "indexed": false,
                    "internalType": "uint32",
                    "name": "remainingBalance",
                    "type": "uint32"
                }
            ],
            "name": "PaymentMade",
            "type": "event"
        },
        {
            "inputs": [
                {
                    "internalType": "address",
                    "name": "",
                    "type": "address"
                }
            ],
            "name": "balances",
            "outputs": [
                {
                    "internalType": "uint32",
                    "name": "",
                    "type": "uint32"
                }
            ],
            "stateMutability": "view",
            "type": "function"
        },
        {
            "inputs": [],
            "name": "borrower",
            "outputs": [
                {
                    "internalType": "address",
                    "name": "",
                    "type": "address"
                }
            ],
            "stateMutability": "view",
            "type": "function"
        },
        {
            "inputs": [],
            "name": "getLoanDetails",
            "outputs": [
                {
                    "internalType": "address",
                    "name": "",
                    "type": "address"
                },
                {
                    "internalType": "address",
                    "name": "",
                    "type": "address"
                },
                {
                    "internalType": "uint32",
                    "name": "",
                    "type": "uint32"
                },
                {
                    "internalType": "uint32",
                    "name": "",
                    "type": "uint32"
                },
                {
                    "internalType": "uint32",
                    "name": "",
                    "type": "uint32"
                },
                {
                    "internalType": "uint32",
                    "name": "",
                    "type": "uint32"
                }
            ],
            "stateMutability": "view",
            "type": "function"
        },
        {
            "inputs": [],
            "name": "getPaymentDetails",
            "outputs": [
                {
                    "internalType": "uint32",
                    "name": "",
                    "type": "uint32"
                }
            ],
            "stateMutability": "view",
            "type": "function"
        },
        {
            "inputs": [],
            "name": "getRemainingBalance",
            "outputs": [
                {
                    "internalType": "uint32",
                    "name": "",
                    "type": "uint32"
                }
            ],
            "stateMutability": "view",
            "type": "function"
        },
        {
            "inputs": [],
            "name": "lender",
            "outputs": [
                {
                    "internalType": "address",
                    "name": "",
                    "type": "address"
                }
            ],
            "stateMutability": "view",
            "type": "function"
        },
        {
            "inputs": [
                {
                    "internalType": "uint32",
                    "name": "_amount",
                    "type": "uint32"
                }
            ],
            "name": "pay",
            "outputs": [],
            "stateMutability": "payable",
            "type": "function"
        }
    ],
    "bytecode": "60803461013057601f61056438819003918201601f19168301916001600160401b038311848410176101345780849260c0946040528339810103126101305780516001600160a01b0381169190829003610130576fffffffff00000000000000000000000061007060208301610148565b926bffffffff000000000000000061008a60408501610148565b9161009760608601610148565b926100b060a06100a960808901610148565b9701610148565b913360018060a01b0319600154161760015560018060a01b03195f5416175f5567ffffffff000000006003549263ffffffff60801b9060801b169763ffffffff60801b199363ffffffff881992169060018060601b03191617169160201b1617169160401b16179160601b16171760035560405161040a908161015a8239f35b5f80fd5b634e487b7160e01b5f52604160045260245ffd5b519063ffffffff821682036101305756fe6080806040526004361015610012575f80fd5b5f3560e01c90816327e235e314610334575080632fba2c851461030c5780637df1f1b9146102e4578063a3b9e39d14610280578063bcead63e14610259578063c7833c91146100935763c92ae95914610069575f80fd5b3461008f575f36600319011261008f57602063ffffffff60035460801c16604051908152f35b5f80fd5b602036600319011261008f5760043563ffffffff811680910361008f576001546001600160a01b03169033829003610214575f8281526002602052604090205463ffffffff16908181116101ff578260035463ffffffff8160201c1660010163ffffffff81116101d75761010e63ffffffff91828416610373565b9160801c169081156101eb5763ffffffff1604905f52600260205260405f2063ffffffff61013f8382845416610390565b825463ffffffff191691161790555f80546001600160a01b03168152600260205260409020805463ffffffff9283169290811683019081116101d75763ffffffff1663ffffffff198254161790557f8e44fed637c80912315a5207b2f722fdcc50a189618e31fe95cee8c1c0ab6c76604060018060a01b03600154169263ffffffff6101c96103aa565b8351928352166020820152a2005b634e487b7160e01b5f52601160045260245ffd5b634e487b7160e01b5f52601260045260245ffd5b632f6912d960e11b5f5260045260245260445ffd5b60405162461bcd60e51b815260206004820152601f60248201527f4f6e6c7920626f72726f7765722063616e206d616b65207061796d656e7473006044820152606490fd5b3461008f575f36600319011261008f575f546040516001600160a01b039091168152602090f35b3461008f575f36600319011261008f5760c060018060a01b035f541663ffffffff60018060a01b03600154166003549060405193845260208401528181166040840152818160201c166060840152818160401c16608084015260601c1660a0820152f35b3461008f575f36600319011261008f576001546040516001600160a01b039091168152602090f35b3461008f575f36600319011261008f5760206103266103aa565b63ffffffff60405191168152f35b3461008f57602036600319011261008f576004356001600160a01b038116919082900361008f576020915f526002825263ffffffff60405f2054168152f35b9063ffffffff8091169116029063ffffffff82169182036101d757565b9063ffffffff8091169116039063ffffffff82116101d757565b6103d1600354606463ffffffff6103c9818085169460201c1684610373565b160490610390565b9056fea2646970667358221220d169429ec84361a11e8483e6839b81143366162740693052fcc9e4a4d819d62a64736f6c634300081d0033",
    "sourcePath": "c:/Users/Daniel/Code/Kuvana/contracts/repay.sol",
    "compiler": {
        "name": "solc",
        "version": "0.8.29+commit.ab55807c"
    },
    "functionHashes": {
        "balances(address)": "27e235e3",
        "borrower()": "7df1f1b9",
        "getLoanDetails()": "a3b9e39d",
        "getPaymentDetails()": "c92ae959",
        "getRemainingBalance()": "2fba2c85",
        "lender()": "bcead63e",
        "pay(uint32)": "c7833c91"
    },
    "gasEstimates": {
        "creation": {
            "codeDepositCost": "206800",
            "executionCost": "infinite",
            "totalCost": "infinite"
        },
        "external": {
            "balances(address)": "2368",
            "borrower()": "2324",
            "getLoanDetails()": "6692",
            "getPaymentDetails()": "2397",
            "getRemainingBalance()": "2512",
            "lender()": "2367",
            "pay(uint32)": "infinite"
        }
    }
}